{
  "contractName": "SpotiFi",
  "abi": [
    {
      "inputs": [],
      "stateMutability": "payable",
      "type": "constructor"
    },
    {
      "inputs": [
        {
          "internalType": "address",
          "name": "",
          "type": "address"
        }
      ],
      "name": "users",
      "outputs": [
        {
          "internalType": "bool",
          "name": "isUser",
          "type": "bool"
        },
        {
          "internalType": "bool",
          "name": "isArtist",
          "type": "bool"
        },
        {
          "internalType": "uint256",
          "name": "spendingCredits",
          "type": "uint256"
        },
        {
          "internalType": "uint256",
          "name": "revenueCredits",
          "type": "uint256"
        }
      ],
      "stateMutability": "view",
      "type": "function"
    },
    {
      "inputs": [],
      "name": "grantFreeCredits",
      "outputs": [],
      "stateMutability": "nonpayable",
      "type": "function"
    },
    {
      "inputs": [],
      "name": "addArtist",
      "outputs": [],
      "stateMutability": "nonpayable",
      "type": "function"
    },
    {
      "inputs": [
        {
          "internalType": "uint256",
          "name": "_tokens",
          "type": "uint256"
        }
      ],
      "name": "buyCredits",
      "outputs": [],
      "stateMutability": "payable",
      "type": "function"
    },
    {
      "inputs": [],
      "name": "checkEnoughTokens",
      "outputs": [
        {
          "internalType": "bool",
          "name": "",
          "type": "bool"
        }
      ],
      "stateMutability": "view",
      "type": "function"
    },
    {
      "inputs": [
        {
          "internalType": "address",
          "name": "_artist",
          "type": "address"
        }
      ],
      "name": "playedSong",
      "outputs": [],
      "stateMutability": "nonpayable",
      "type": "function"
    },
    {
      "inputs": [],
      "name": "getRewards",
      "outputs": [],
      "stateMutability": "payable",
      "type": "function"
    }
  ],
  "bytecode": "0x6080604052335f806101000a81548173ffffffffffffffffffffffffffffffffffffffff021916908373ffffffffffffffffffffffffffffffffffffffff160217905550610e71806100505f395ff3fe60806040526004361061006f575f3560e01c80636eb0fe841161004d5780636eb0fe84146100c1578063935e1f82146100eb578063a87430ba14610101578063c93b6ebc146101405761006f565b80630572b0cc146100735780630c4dfe3f1461007d5780630c700fe814610099575b5f80fd5b61007b610156565b005b610097600480360381019061009291906109f4565b610333565b005b3480156100a4575f80fd5b506100bf60048036038101906100ba9190610a79565b61045f565b005b3480156100cc575f80fd5b506100d5610676565b6040516100e29190610abe565b60405180910390f35b3480156100f6575f80fd5b506100ff61073c565b005b34801561010c575f80fd5b5061012760048036038101906101229190610a79565b610803565b6040516101379493929190610ae6565b60405180910390f35b34801561014b575f80fd5b50610154610847565b005b5f73ffffffffffffffffffffffffffffffffffffffff163373ffffffffffffffffffffffffffffffffffffffff16036101c4576040517f08c379a00000000000000000000000000000000000000000000000000000000081526004016101bb90610b83565b60405180910390fd5b60015f3373ffffffffffffffffffffffffffffffffffffffff1673ffffffffffffffffffffffffffffffffffffffff1681526020019081526020015f205f0160019054906101000a900460ff16610250576040517f08c379a000000000000000000000000000000000000000000000000000000000815260040161024790610beb565b60405180910390fd5b5f67016345785d8a000060015f3373ffffffffffffffffffffffffffffffffffffffff1673ffffffffffffffffffffffffffffffffffffffff1681526020019081526020015f20600201546102a59190610c36565b90503373ffffffffffffffffffffffffffffffffffffffff166108fc8290811502906040515f60405180830381858888f193505050501580156102ea573d5f803e3d5ffd5b505f60015f3373ffffffffffffffffffffffffffffffffffffffff1673ffffffffffffffffffffffffffffffffffffffff1681526020019081526020015f206002018190555050565b5f73ffffffffffffffffffffffffffffffffffffffff163373ffffffffffffffffffffffffffffffffffffffff16036103a1576040517f08c379a000000000000000000000000000000000000000000000000000000000815260040161039890610b83565b60405180910390fd5b5f81116103ac575f80fd5b5f67016345785d8a0000826103c19190610c36565b9050348114610405576040517f08c379a00000000000000000000000000000000000000000000000000000000081526004016103fc90610ce7565b60405180910390fd5b8160015f3373ffffffffffffffffffffffffffffffffffffffff1673ffffffffffffffffffffffffffffffffffffffff1681526020019081526020015f206001015f8282546104549190610d05565b925050819055505050565b5f73ffffffffffffffffffffffffffffffffffffffff163373ffffffffffffffffffffffffffffffffffffffff16036104cd576040517f08c379a00000000000000000000000000000000000000000000000000000000081526004016104c490610b83565b60405180910390fd5b5f73ffffffffffffffffffffffffffffffffffffffff168173ffffffffffffffffffffffffffffffffffffffff160361053b576040517f08c379a000000000000000000000000000000000000000000000000000000000815260040161053290610d82565b60405180910390fd5b60015f8273ffffffffffffffffffffffffffffffffffffffff1673ffffffffffffffffffffffffffffffffffffffff1681526020019081526020015f205f0160019054906101000a900460ff166105c7576040517f08c379a00000000000000000000000000000000000000000000000000000000081526004016105be90610dea565b60405180910390fd5b6001805f3373ffffffffffffffffffffffffffffffffffffffff1673ffffffffffffffffffffffffffffffffffffffff1681526020019081526020015f206001015f8282546106169190610e08565b925050819055506001805f8373ffffffffffffffffffffffffffffffffffffffff1673ffffffffffffffffffffffffffffffffffffffff1681526020019081526020015f206002015f82825461066c9190610d05565b9250508190555050565b5f8073ffffffffffffffffffffffffffffffffffffffff163373ffffffffffffffffffffffffffffffffffffffff16036106e5576040517f08c379a00000000000000000000000000000000000000000000000000000000081526004016106dc90610b83565b60405180910390fd5b5f60015f3373ffffffffffffffffffffffffffffffffffffffff1673ffffffffffffffffffffffffffffffffffffffff1681526020019081526020015f206001015403610734575f9050610739565b600190505b90565b5f73ffffffffffffffffffffffffffffffffffffffff163373ffffffffffffffffffffffffffffffffffffffff16036107aa576040517f08c379a00000000000000000000000000000000000000000000000000000000081526004016107a190610b83565b60405180910390fd5b6001805f3373ffffffffffffffffffffffffffffffffffffffff1673ffffffffffffffffffffffffffffffffffffffff1681526020019081526020015f205f0160016101000a81548160ff021916908315150217905550565b6001602052805f5260405f205f91509050805f015f9054906101000a900460ff1690805f0160019054906101000a900460ff16908060010154908060020154905084565b5f73ffffffffffffffffffffffffffffffffffffffff163373ffffffffffffffffffffffffffffffffffffffff16036108b5576040517f08c379a00000000000000000000000000000000000000000000000000000000081526004016108ac90610b83565b60405180910390fd5b60015f3373ffffffffffffffffffffffffffffffffffffffff1673ffffffffffffffffffffffffffffffffffffffff1681526020019081526020015f205f015f9054906101000a900460ff166109b757600560015f3373ffffffffffffffffffffffffffffffffffffffff1673ffffffffffffffffffffffffffffffffffffffff1681526020019081526020015f206001015f8282546109559190610d05565b925050819055506001805f3373ffffffffffffffffffffffffffffffffffffffff1673ffffffffffffffffffffffffffffffffffffffff1681526020019081526020015f205f015f6101000a81548160ff0219169083151502179055506109bb565b5f80fd5b565b5f80fd5b5f819050919050565b6109d3816109c1565b81146109dd575f80fd5b50565b5f813590506109ee816109ca565b92915050565b5f60208284031215610a0957610a086109bd565b5b5f610a16848285016109e0565b91505092915050565b5f73ffffffffffffffffffffffffffffffffffffffff82169050919050565b5f610a4882610a1f565b9050919050565b610a5881610a3e565b8114610a62575f80fd5b50565b5f81359050610a7381610a4f565b92915050565b5f60208284031215610a8e57610a8d6109bd565b5b5f610a9b84828501610a65565b91505092915050565b5f8115159050919050565b610ab881610aa4565b82525050565b5f602082019050610ad15f830184610aaf565b92915050565b610ae0816109c1565b82525050565b5f608082019050610af95f830187610aaf565b610b066020830186610aaf565b610b136040830185610ad7565b610b206060830184610ad7565b95945050505050565b5f82825260208201905092915050565b7f496e76616c69642073656e6465720000000000000000000000000000000000005f82015250565b5f610b6d600e83610b29565b9150610b7882610b39565b602082019050919050565b5f6020820190508181035f830152610b9a81610b61565b9050919050565b7f596f7520617265206e6f7420616e2061727469737400000000000000000000005f82015250565b5f610bd5601583610b29565b9150610be082610ba1565b602082019050919050565b5f6020820190508181035f830152610c0281610bc9565b9050919050565b7f4e487b71000000000000000000000000000000000000000000000000000000005f52601160045260245ffd5b5f610c40826109c1565b9150610c4b836109c1565b9250828202610c59816109c1565b91508282048414831517610c7057610c6f610c09565b5b5092915050565b7f546f6b656e20616d6f756e7420616e64206665657320646f6e2774206d6174635f8201527f6800000000000000000000000000000000000000000000000000000000000000602082015250565b5f610cd1602183610b29565b9150610cdc82610c77565b604082019050919050565b5f6020820190508181035f830152610cfe81610cc5565b9050919050565b5f610d0f826109c1565b9150610d1a836109c1565b9250828201905080821115610d3257610d31610c09565b5b92915050565b7f496e76616c6964206172746973742061646472657373000000000000000000005f82015250565b5f610d6c601683610b29565b9150610d7782610d38565b602082019050919050565b5f6020820190508181035f830152610d9981610d60565b9050919050565b7f41727469737420646f65736e27742065786973740000000000000000000000005f82015250565b5f610dd4601483610b29565b9150610ddf82610da0565b602082019050919050565b5f6020820190508181035f830152610e0181610dc8565b9050919050565b5f610e12826109c1565b9150610e1d836109c1565b9250828203905081811115610e3557610e34610c09565b5b9291505056fea2646970667358221220cd677f0a6ce94ecc400402533b46b4b88c3c8128581081da079fdc4577f78efb64736f6c63430008150033",
  "immutableReferences": {},
  "source": "//SPDX-License-Identifier: MIT\r\npragma solidity ^0.8.0;\r\n\r\ncontract SpotiFi {\r\n\r\n    // struct Artist {\r\n    //     bool isArtist;\r\n    //     uint credits;\r\n    // }\r\n\r\n    struct User {\r\n        bool isUser;\r\n        bool isArtist;\r\n        uint spendingCredits;\r\n        uint revenueCredits;\r\n    }\r\n\r\n    address payable owner;\r\n    mapping(address => User) public users;\r\n    // mapping(address => Artist) public artists;\r\n\r\n    constructor() payable {\r\n        owner = payable(msg.sender);\r\n    }\r\n\r\n    // autocall function \r\n    function grantFreeCredits() public {\r\n        require(msg.sender != address(0), \"Invalid sender\");\r\n        if(!users[msg.sender].isUser){\r\n            users[msg.sender].spendingCredits += 5;\r\n            users[msg.sender].isUser = true;\r\n            return;\r\n        }\r\n        revert();\r\n    }\r\n\r\n    // autocall function \r\n    function addArtist() public {\r\n        require(msg.sender != address(0), \"Invalid sender\");\r\n        users[msg.sender].isArtist = true;\r\n    }\r\n\r\n    function buyCredits(uint _tokens) public payable {\r\n        require(msg.sender != address(0), \"Invalid sender\");\r\n        require(_tokens > 0);\r\n        uint amount = _tokens * 100000000000000000;\r\n        require(amount == msg.value, \"Token amount and fees don't match\");\r\n        // owner.transfer(amount);\r\n        users[msg.sender].spendingCredits += _tokens;\r\n    }\r\n\r\n    // autocall function \r\n    function checkEnoughTokens() public view returns (bool) {\r\n        require(msg.sender != address(0), \"Invalid sender\");\r\n        if(users[msg.sender].spendingCredits == 0){\r\n            return false;\r\n        }\r\n        return true;\r\n    }\r\n\r\n    // autocall function \r\n    function playedSong(address _artist) public {\r\n        require(msg.sender != address(0), \"Invalid sender\");\r\n        require(_artist != address(0), \"Invalid artist address\");\r\n        require(users[_artist].isArtist, \"Artist doesn't exist\");\r\n        users[msg.sender].spendingCredits -= 1;\r\n        users[_artist].revenueCredits += 1;\r\n    }\r\n\r\n    function getRewards() public payable {\r\n        require(msg.sender != address(0), \"Invalid sender\");\r\n        require(users[msg.sender].isArtist, \"You are not an artist\");\r\n        uint reward = users[msg.sender].revenueCredits * 100000000000000000;\r\n        payable(msg.sender).transfer(reward);\r\n        users[msg.sender].revenueCredits = 0;\r\n    }\r\n}",
  "sourcePath": "D:\\4_Kesari_DecentralizedMusic\\src\\contract\\contracts\\contract.sol",
  "compiler": {
    "name": "solc",
    "version": "0.8.21+commit.d9974bed.Emscripten.clang"
  },
  "schemaVersion": "3.4.16",
  "updatedAt": "2024-02-18T07:29:03.820Z",
  "devdoc": {
    "kind": "dev",
    "methods": {},
    "version": 1
  },
  "userdoc": {
    "kind": "user",
    "methods": {},
    "version": 1
  }
}